:100000000A128A11EC2F00308A000408840A820741
:10001000003443346F3475346E3474343A342034DD
:06002000253464340034B5
:10093000080064008001840A0406031900340406D8
:100940009A2CF71BA42CA52CA62CB12C7609F80008
:100950007709F900F80A0319F90A7808F600790806
:10096000F7000800F20072088312031387000610D4
:10097000861006152130F1007630F000F00BBE2C09
:10098000F10BBE2C00008312031306110800F200C5
:10099000720883120313870006148610061521308F
:1009A000F1007630F000F00BD32CF10BD32C0000CB
:1009B000831203130611080038300A128A11B22478
:1009C0000A128A1106300A128A11B2240A128A11F6
:1009D0000C300A128A11B2240A128A1101300A124A
:1009E0008A11B2240A128A110800F701F8010A2DAF
:1009F00077087307F60076088400831300080A124C
:100A00008A11C7240A128A110130F7070318F80A5D
:100A10000030F80775087802031D102D740877025E
:100A2000031C132D142DF82C0800333083120313EC
:100A3000B6003108B7000030B800B901BA01C001F2
:100A4000C1013730AD000030AE003208AF003630A3
:100A5000B0000A128A1138250A128A118312031370
:100A600039083107B5003508840083138001080078
:100A7000831203132F08FD004C2D831203132D083E
:100A8000A0002E08A1007D30A2003008A3000A12A9
:100A90008A1106270A128A117D0884000A128A1117
:100AA00003200A128A11003A031D572D582D3D2D9F
:100AB00083120313AD01AE010800831603138601F0
:100AC00087010A128A11DC240A128A118312031385
:100AD000CF01D00180300A128A11B2240A128A1181
:100AE000453083120313B1000130B2005008B40046
:100AF0004F08B3000A128A1115250A128A114530CF
:100B0000F3000A30F4000030F5000A128A11F524CF
:100B10000A128A110D3083120313C400AF30C300D0
:100B2000B530C200C20B922DC30B922DC40B922D77
:100B3000992D013083120313CF070318D00A003018
:100B4000D0075008803AFF0080307F02031DAA2D95
:100B500064304F02031CAD2DAE2D6A2D662D0A1296
:100B60008A110028F501F31FB62DB72DBE2DF2090D
:100B7000F309F20A0319F30A0130F500F11FC12D40
:100B8000C22DC72DF009F109F00A0319F10A700806
:100B900071040319CC2DCD2DFA2D0130F400D92D7F
:100BA00001300310F00DF10DFF3E031DD12D01307A
:100BB000F407F11FDC2DDD2DD02D71087302031D0C
:100BC000E32D70087202031CE62DE72DED2D700851
:100BD000F2027108031CF303F30201300310F10C5D
:100BE000F00CFF3E031DEE2D0130F402031DF92D24
:100BF000FA2DDD2D75080319FE2DFF2D042EF209A7
:100C0000F309F20A0319F30A7308F1007208F000FD
:100C10000800F501F11F0D2E0E2E152EF009F10919
:100C2000F00A0319F10A0130F500F31F182E192EEE
:100C3000202EF209F309F20A0319F30A0130F5062E
:100C4000F601F701700871040319272E282E5D2E76
:100C50000130F400342E01300310F00DF10DFF3E91
:100C6000031D2C2E0130F407F11F372E382E2B2EAA
:100C700001300310F60DF70DFF3E031D392E7108EC
:100C80007302031D452E70087202031C482E492E64
:100C9000502E7008F2027108031CF303F30276145D
:100CA00001300310F10CF00CFF3E031D512E0130FA
:100CB000F402031D5C2E5D2E382E75080319612E7B
:100CC000622E672EF609F709F60A0319F70A770864
:100CD000F1007608F0000800720873040319712E01
:100CE000722E782E72087304031D772E782E7F2EB5
:100CF00070080A128A1198240A128A11052F7208A4
:100D0000093EF40073080318013E003EF500740824
:100D100084008317751C83130008F600840A0008FA
:100D2000F700760877040319962E972EC92E7208BD
:100D3000093EF40073080318013E003EF5007408F4
:100D400084008317751C83130008F600840A0008CA
:100D5000F7007208023EF80073080318013E003ED7
:100D6000F900780884008317791C83130008FA00BF
:100D7000840A0008FB007B08803AFC007708803A70
:100D80007C02031DC52E76087A020318C82EC92ED0
:100D9000052F720884008317731C83130008F40066
:100DA000840A0008F5007208023EF6007308031872
:100DB000013E003EF700760884008317771C8313FA
:100DC00000087407F9007508F8000318F80A801F76
:100DD000EA2EF8037808FA007908840083177A1C51
:100DE0008313700880007208023EF4007308031831
:100DF000013E003EF500740884008317751C8313C0
:100E000001308007840A0318800A08008312031344
:100E100022088400000884000A128A1103200A12A2
:100E20008A11253A031D152F162FD22F2208840070
:100E300001308007D101D2010030D500FF30D3004E
:100E4000FF30D400220884000008A700270884008F
:100E50000A128A1103200A128A11643A0319312FE7
:100E6000322F3E2F270884000A128A1103200A120B
:100E70008A11693A031D3D2F3E2FCB2F2308840092
:100E800083130008FF00023080077F0884000008F9
:100E9000A800840A0008A900220884002708013E4F
:100EA00080002030AC00A91B562F582F0130592F3D
:100EB0000030A6000130AC022C08A03E84000A30AD
:100EC000F0000030F1002908F3002808F2000A12AF
:100ED0008A11B2250A128A117108F7007008F6000B
:100EE0000A128A11A1240A128A117608303E83134D
:100EF00080000A30F0000030F1008312031329084B
:100F0000F3002808F2000A128A1109260A128A112F
:100F1000710883120313A9007008A8002808290487
:100F20000319932F942F992F2C08031D982F992F75
:100F30005A2F2C0803199D2F9E2FC42F2608031902
:100F4000A22FA32FC42F0130AC022C08A03E840096
:100F50002D3083138000C42F2C08A03E84008313FF
:100F60000008A400A5012408F0002508F1002008CD
:100F7000F2002108F3000A128A116C260A128A1163
:100F8000013083120313AC0720302C06031DC92F38
:100F9000CA2FAC2FEB2F83120313220884000130D9
:100FA0008007EB2F22088400000884000A128A11AF
:100FB00003200A128A11A400A5012408F0002508C4
:100FC000F1002008F2002108F3000A128A116C26B1
:100FD0000A128A11CB2F080083120313D101D20108
:100FE000D301D401D5018313A0308400C0300A128C
:100FF0008A1199240A128A1183010A128A115D2D1D
:02400E00BA3FB7
:00000001FF
