:100000000A128A11FC2F00308A000408840A820731
:1000100000344C344334443420344434493453346D
:1000200050344C3441345934003434342D34423457
:0600300069347434003451
:100E580028300A128A1166270A128A1106300A12E5
:100E68008A1166270A128A110C300A128A1166271B
:100E78000A128A1101300A128A1166270A128A1187
:100E88000800F601F7015B2F7608730784000A1241
:100E98008A1103200A128A110A128A1197270A1244
:100EA8008A110130F6070318F70A0030F7077508AA
:100EB8007702031D612F74087602031C642F652FC7
:100EC800482F0800F2007208F039831203138600D5
:100ED8000610861006152130F1007630F000F00B70
:100EE800732FF10B732F000083120313061172087E
:100EF800F00003300310F00DFF3E031D7E2F03109A
:100F0800700DF03986000610861006152130F100A4
:100F18007630F000F00B8E2FF10B8E2F000083122D
:100F2800031306110800F2007208F0398312031344
:100F380086000614861006152130F1007630F00080
:100F4800F00BA42FF10BA42F00008312031306113A
:100F58007208F00003300310F00DFF3E031DAF2FA1
:100F68000310700DF039860006148610061521301E
:100F7800F1007630F000F00BBF2FF10BBF2F00000F
:100F880083120313061108008316031386010A123D
:100F98008A112C270A128A1118300A128A11662718
:100FA8000A128A118F300A128A1166270A128A11C8
:100FB8000D30F3000530F4000030F5000A128A11F4
:100FC80045270A128A11CF300A128A1166270A1297
:100FD8008A110130F3000B30F4000030F5000A12DA
:100FE8008A1145270A128A11D02F0A128A1100285D
:080FF80083010A128A11C82FBF
:02400E00BA3FB7
:00000001FF
