:060000000A128A11EE2F26
:100D2C003F3406345B344F3466346D347D340734D1
:100D3C007F346F347E088A007F0882000A128A1181
:100D4C00A0260A128A118000840A04087D06031961
:100D5C000034FF0A0319FE0AA42E7008710403194B
:100D6C00B82EB92EE62E0130F400C52E013003103A
:100D7C00F00DF10DFF3E031DBD2E0130F407F11FE8
:100D8C00C82EC92EBC2E71087302031DCF2E7008FD
:100D9C007202031CD22ED32ED92E7008F2027108C7
:100DAC00031CF303F30201300310F10CF00CFF3EB3
:100DBC00031DDA2E0130F402031DE52EE62EC92E9A
:100DCC007308F1007208F0000800F401F5017008D6
:100DDC0071040319F22EF32E282F0130F600FF2E8A
:100DEC0001300310F00DF10DFF3E031DF72E013005
:100DFC00F607F11F022F032FF62E01300310F40D0E
:100E0C00F50DFF3E031D042F71087302031D102FF7
:100E1C0070087202031C132F142F1B2F7008F20280
:100E2C007108031CF303F302741401300310F10C6A
:100E3C00F00CFF3E031D1C2F0130F602031D272F63
:100E4C00282F032F7508F1007408F00008003630C5
:100E5C0084002030F7000A30F80083130008F900F2
:100E6C00040AFA007708840079088000040AF70065
:100E7C007A088400F80B332F83160313860187013D
:100E8C00E83083120313B4000330B5000330B20012
:100E9C000030B300842F0A30F0000030F100350828
:100EAC00F3003408F2000A128A11B3260A128A11CE
:100EBC00831203133208F70077072A3E8400700868
:100ECC0083138000840A710880000A30F00000301F
:100EDC00F1003508F3003408F2000A128A11EB26EF
:100EEC000A128A11710883120313B5007008B4003A
:100EFC000130B2020030031CB303B30234083504D2
:100F0C00031D892F8A2F512F0130B4020030031C8E
:100F1C00B503B502013086003008203E84008313EF
:100F2C00000887000230F9004530F800A930F700BE
:100F3C00F70B9E2FF80B9E2FF90B9E2FA52F02302F
:100F4C008312031386002E08203E840083130008AE
:100F5C0087000230F9004530F800A930F700F70B94
:100F6C00B52FF80BB52FF90BB52FBC2F043083120E
:100F7C00031386002C08203E84008313000887008E
:100F8C000230F9004530F800A930F700F70BCC2FF0
:100F9C00F80BCC2FF90BCC2FD32F08308312031363
:100FAC0086002A08203E8400831300088700023044
:100FBC00F9004530F800A930F700F70BE32FF80BD8
:100FCC00E32FF90BE32FEA2F462F0A128A11002880
:100FDC0083134030FD000630FE009630FF003630A3
:100FEC0084000A128A11A4260A128A1183010A1299
:040FFC008A112D2FFA
:02400E00FA1F97
:00000001FF
