:060000000A128A110C280F
:10000800FE00030EF0000A08F1000A128A113C28CB
:100018000A128A110F28F20183010A128A11142880
:100028008B170B17831603138C1624309800903007
:1000380083120313980081308316031399008030CC
:100048008700860161307206031D2B282C282F2873
:1000580083120313061462307206031D34283528F0
:10006800262883120313061026280A128A110C2840
:10007800831203138C1E4128422845281A08F200CF
:100088008C1271088A00700E8300FE0E7E0E090025
:02400E00BA3FB7
:00000001FF
