:060000000A128A11EE2F26
:100F0A003F3406345B344F3466346D347D340734F1
:100F1A007F346F347E088A007F0882000A128A11A1
:100F2A008F270A128A118000840A04087D06031991
:100F3A000034FF0A0319FE0A932F2C308400203054
:100F4A00F0000A30F10083130008F200040AF300EB
:100F5A007008840072088000040AF0007308840094
:100F6A00F10BA82F8316031386018312031320089B
:100F7A008600AA01AB01831203132A08203E8400CB
:100F8A008313000886001A30F2005E30F1006E30DA
:100F9A00F000F00BCE2FF10BCE2FF20BCE2F00006C
:100FAA00013083120313AA070318AB0A0030AB07F8
:100FBA002B08803AFF0080307F02031DE62F0A309B
:100FCA002A02031CE92FEA2FC02FBA2F0A128A110C
:100FDA00002883133630FD000730FE008530FF00FD
:100FEA002C3084000A128A1193270A128A1183016B
:060FFA000A128A11A22F69
:02400E00FA1F97
:00000001FF
