:060000000A128A110E280D
:10000800FE00030EF2000A08F3007F08F4000A124B
:100018008A15D72E0A128A111128F501F601F7015F
:10002800F8018313483084005C300A128A1563266D
:100038000A128A1183010A128A112E2D83120313C0
:100048002C08B6008030B6052C08B1003107BC007A
:10005800AB1F2F28302831283C143C0803193528B9
:10006800362845283C0A031D3A283B2843280030F7
:10007800AC000030AB000030AA000030A900AB177C
:100088004D280030AC000030AB000030AA00003032
:10009800A90030088039B6063008B1003107B7002A
:1000A800AF1F5728582859283714370803195D28CF
:1000B8005E286D28370A031D622863286B280030E4
:1000C800B0000030AF000030AE000030AD00AF1718
:1000D80075280030B0000030AF000030AE000030AE
:1000E800AD003708031979287A287F283C08031DB2
:1000F8007E287F2888280030AC000030AB00003014
:10010800AA000030A900632B2908A0002F080A12B2
:100118008A1500270A128A11831203132108C200C4
:100128002008C1004108B100B201B301B40134088C
:10013800BB003308BA003208B9003108B8004208D9
:10014800B100B201B301B4013408C0003308BF00E4
:100158003208BE003108BD002A08A0002E080A1285
:100168008A1500270A128A11831203132108C20074
:100178002008C1004108B100B201B301B40131083F
:10018800B807320803110318013E0319CC28B90730
:10019800330803110318013E0319D328BA0734089A
:1001A80003110318013E0319DA28BB074208B100FE
:1001B800B201B301B4013108BD07320803110318B5
:1001C800013E0319E828BE07330803110318013E4E
:1001D8000319EF28BF07340803110318013E031958
:1001E800F628C0072B08A0002D080A128A15002738
:1001F8000A128A11831203132108C2002008C100C1
:100208004108B100B201B301B4013108B80732089E
:1002180003110318013E03191229B9073308031102
:100228000318013E03191929BA07340803110318E2
:10023800013E03192029BB074208B100B201B301EE
:10024800B4013108BD07320803110318013E031930
:100258002E29BE07330803110318013E0319352957
:10026800BF07340803110318013E03193C29C007CE
:100278000830B1000310B80DB90DBA0DBB0DB10BA4
:100288003E292A08A0002D080A128A1500270A12FA
:100298008A11831203132108C2002008C1004108F3
:1002A800B1004208B200B301B4013108B8073208FE
:1002B80003110318013E03196229B9073308031112
:1002C8000318013E03196929BA07340803110318F2
:1002D800013E03197029BB072908A0002E080A123D
:1002E8008A1500270A128A11831203132108C200F3
:1002F8002008C1004108B1004208B200B301B401AE
:100308003108B807320803110318013E03198D2973
:10031800B907330803110318013E03199429BA07D2
:10032800340803110318013E03199B29BB07083041
:10033800B1000310B80DB90DBA0DBB0DB10B9D2955
:100348002908A0002D080A128A1500270A128A1106
:10035800831203132108C2002008C1004108B1001C
:100368004208B200B301B4013108B80732080311DA
:100378000318013E0319C129B907330803110318EB
:10038800013E0319C829BA07340803110318013EAE
:100398000319CF29BB072A08A0002F080A128A15BB
:1003A80000270A128A11831203132108C2002008A9
:1003B800C1004108B1004208B200B301B4013108DC
:1003C800BD07320803110318013E0319EC29BE07C3
:1003D800330803110318013E0319F329BF07340832
:1003E80003110318013E0319FA29C0072B08A000BE
:1003F8002E080A128A1500270A128A11831203137B
:100408002108C2002008C1004108B1004208B2001A
:10041800B301B4013108BD07320803110318013EC6
:100428000319172ABE07330803110318013E0319DD
:100438001E2ABF07340803110318013E0319252A91
:10044800C0072B08A0002F080A128A1500270A12D5
:100458008A11831203132108C2002008C100410831
:10046800B1004208B200B301B40108300310B10D65
:10047800B20DB30DB40DFF3E031D3A2A3108BD0776
:10048800320803110318013E03194B2ABE0733082B
:1004980003110318013E0319522ABF073408031138
:1004A8000318013E0319592AC0073808B100390852
:1004B800B2003A08B3003B08B40018300310B40C7B
:1004C800B30CB20CB10CFF3E031D622A3108BD0704
:1004D800320803110318013E0319732ABE073308B3
:1004E80003110318013E03197A2ABF0734080311C0
:1004F8000318013E0319812AC0070830B100031010
:10050800B80DB90DBA0DBB0DB10B832A3C083707DE
:10051800B100B201B20D3108823EC10032080318A1
:10052800013EFF3EC200B52A0130B1000310BD0DE7
:10053800BE0DBF0DC00DB10B9A2ABB1FA42AA52A58
:10054800A62A3D140130B1000310B80DB90DBA0D3B
:10055800BB0DB10BA82AFF30C1070318C20AFF3030
:10056800C207BF1FB82AB92A982AB701BB1FBD2ADC
:10057800BE2ADA2AFF303805B100FF303905B2004B
:10058800FF303A05B3007F303B05B400340833042C
:10059800320431040319D12AD22AD52A0130B700EE
:1005A800DA2A3D1CD82AD92ADA2AD22A3708031986
:1005B800DE2ADF2A102B0130BD0700300318013076
:1005C800BE07003003180130BF07003003180130A0
:1005D800C007401CF02AF12A102B3D08B1003E0844
:1005E800B2003F08B3004008B4000130B500340D34
:1005F800B40CB30CB20CB10CB50BFB2A3408C00018
:100608003308BF003208BE003108BD000130C10701
:100618000318C20A0030C2074208803AFF0080303F
:100628007F02031D192BFF304102031C1C2B1D2BBD
:10063800282B7F3083120313C0008030BF000030A6
:10064800BE000030BD00592B831203134208803AC4
:10065800FF0080307F02031D332B01304102031855
:10066800362B372B432B003083120313C000003086
:10067800BF000030BE000030BD00B601592B831208
:1006880003134108BC00FF30BD05FF30BE057F30B5
:10069800BF050030C0053C1C522B532B542BBF17F1
:1006A8003C08B1000310310CC0003608C0044008F3
:1006B800AC003F08AB003E08AA003D08A9000800AE
:1006C800831203133508BF008030BF053508B60014
:1006D8003607C600B41F712B722B732B46144608BD
:1006E8000319772B782B882B460A031D7C2B7D2B2F
:1006F800852B0030B5000030B4000030B300003066
:10070800B200B417B501902B0030B5000030B4002A
:100718000030B3000030B20031088039BF0631081C
:10072800B6003607C700B01F9A2B9B2B9C2B47148B
:1007380047080319A02BA12BB12B470A031DA52B92
:10074800A62BAE2B0030B1000030B0000030AF0057
:100758000030AE00B017B101B92B0030B100003045
:10076800B0000030AF000030AE00310830042F0474
:100778002E04031DC02BC12BD82B0030B500003030
:10078800B4000030B3000030B2008030B4047F30D1
:10079800B5043F08B5043508B1003408B000330883
:1007A800AF003208AE002D2D4608031DDC2BDD2BD3
:1007B800E62B0030B1000030B0000030AF00003050
:1007C800AE002D2D4608B600B7013708B900470816
:1007D8003602B800031CB90338087F3EC000390848
:1007E8000318013E003EC1003508BE003408BD00B4
:1007F8003308BC003208BB000030B5000030B4003C
:100808000030B3000030B2000030C5000030C40032
:100818000030C3000030C200C7015A2C4708031932
:10082800162C172C372C0130B6000310BB0DBC0D4D
:10083800BD0DBE0DB60B192C0130B6000310B20D5C
:10084800B30DB40DB50DB60B222CC51F2C2C2D2CB9
:100858002E2C32140130B6000310C20DC30DC40D86
:10086800C50DB60B302C31083E02031D452C30084F
:100878003D02031D452C2F083C02031D452C2E0864
:100888003B02031C482C492C582C45172E08BB0248
:100898002F08031C2F0FBC023008031C300FBD02A9
:1008A8003108031C310FBE020130C7071A30470256
:1008B800031C5F2C602C122C3E083D043C043B04B6
:1008C8000319672C682C872C4214872C0130B6003A
:1008D8000310B20DB30DB40DB50DB60B6C2CC51FBE
:1008E800762C772C782C32140130B6000310C20D08
:1008F800C30DC40DC50DB60B7A2CFF30C007031805
:10090800C10AFF30C107B41F8A2C8B2C6A2CC7017F
:10091800C51F8F2C902CAC2CFF304205B600FF3041
:100928004305B700FF304405B8007F304505B900DE
:1009380039083804370436040319A32CA42CA72C2F
:100948000130C700AC2C321CAA2CAB2CAC2CA42C2C
:1009580047080319B02CB12CE22C0130B207003043
:1009680003180130B307003003180130B407003012
:1009780003180130B507351CC22CC32CE22C3208F1
:10098800B6003308B7003408B8003508B90001309C
:10099800BA00390DB90CB80CB70CB60CBA0BCD2C83
:1009A8003908B5003808B4003708B3003608B20073
:1009B8000130C0070318C10A0030C1074108803A56
:1009C800FF0080307F02031DEB2CFF304002031C28
:1009D800EE2CEF2CFD2CFF3083120313C0000030E7
:1009E800C1000030B5000030B4000030B300003062
:1009F800B200831203134108803AFF0080307F025F
:100A0800031D082D0130400203180B2D0C2D192D44
:100A180083120313C001C1010030B5000030B400D7
:100A28000030B3000030B200BF0183120313400846
:100A3800C600461C202D212D232DB417252D7F30CF
:100A4800B4054608B6000310360CB5003F08B504D7
:100A5800CF2B08008B170B17831603130C1786016F
:100A680087010A128A1599260A128A1180300A12F9
:100A78008A156B260A128A11013083120313A30008
:100A88000630A4000030A5000A128A15B2260A1200
:100A98008A114130831203139F008E30831603138B
:100AA8009F00831203131F0804389F004030B100D1
:100AB8000230B000F130AF00AA30AE007708A000D5
:100AC8007808A100A201A30100300A128A116A263F
:100AD8000A128A11831203132308B5002208B400EE
:100AE8002108B3002008B2000A128A1164230A12EE
:100AF8008A11831203133108CB003008CA002F086B
:100B0800C9002E08C8004230AC00C830AB00003025
:100B1800AA000030A9004B08B0004A08AF004908F5
:100B2800AE004808AD000A128A1122200A128A1162
:100B3800831203132C08CF002B08CE002A08CD00FF
:100B48002908CC0089300A128A156B260A128A11E4
:100B58000A3083120313AA000030AB004F08A30029
:100B68004E08A2004D08A1004C08A0000A128A11E4
:100B780020270A128A11831203132108AD002008C6
:100B8800AC000A128A1196270A128A1183120313DB
:100B98002B08F6002A08F5000A30AA000030AB003E
:100BA8004F08A3004E08A2004D08A1004C08A00061
:100BB8000A128A1120270A128A11831203132108A4
:100BC800AD002008AC000A128A15A7270A128A115C
:100BD800831203132B08D9002A08D8000A30A00072
:100BE8000030A1007608A3007508A2000A128A1531
:100BF80029270A128A11831203132108D700200813
:100C0800D6000A30A0000030A1007608A3007508BD
:100C1800A2000A128A1563270A128A118312031383
:100C28002108D5002008D4000A30A0000030A10017
:100C38005508A3005408A2000A128A1529270A1287
:100C48008A11831203132108D3002008D2000A3026
:100C5800A0000030A1005508A3005408A2000A1201
:100C68008A1563270A128A11831203132108D100F7
:100C78002008D0005008303E0A128A1582260A122F
:100C88008A11831203135208303E0A128A158226EB
:100C98000A128A112E300A128A1582260A128A111D
:100CA800831203135608303E0A128A1582260A1246
:100CB8008A11831203135808303E0A128A158226B5
:100CC8000A128A11552D0A128A110E28831203134B
:100CD800A80028080319712E722E862EA31F752EC0
:100CE800762E862E2009AA002109AB002209AC0025
:100CF8002309AD00AA0A0319AB0A0319AC0A0319A0
:100D0800AD0A8E2E2308AD002208AC002108AB00E6
:100D18002008AA002308220421042004031D952E7C
:100D2800962E9F2E0030A3000030A2000030A100B4
:100D38000030A0001F2F9630A900AD2E0130A90762
:100D480001300310AD0CAC0CAB0CAA0CFF3E031D1C
:100D5800A52EFE302D05031DB22EB32EA22ECD2EAC
:100D68000130A9070130AA07003003180130AB078A
:100D7800003003180130AC07003003180130AD070C
:100D880001300310AD0CAC0CAB0CAA0CFF3E031DDC
:100D9800C52EFF302D05031DD22ED32EB42EDF2EE7
:100DA8000130A9020130A4000310AA0DAB0DAC0D4F
:100DB800AD0DA40BD82EAC1BE22EE32EE92E02308B
:100DC80029020318E82EE92ED42E2918EC2EED2E30
:100DD800F52EFF30AA05FF30AB057F30AC05FF309C
:100DE800AD050310A90C2908A400A501A601A701B7
:100DF80018300310A40DA50DA60DA70DFF3E031D69
:100E0800FD2E2408AA042508AB042608AC042708EC
:100E1800AD0428080319112F122F172FA31F152F00
:100E2800162F172FAD172D08A3002C08A2002B088A
:100E3800A1002A08A0000800031083120313220D42
:100E4800230DA9002908031D2A2F2B2F342F00302A
:100E5800A3000030A2000030A1000030A000952FB0
:100E68002008A4002108A5002208A6002308A7003E
:100E78001F300310A70CA60CA50CA40CFF3E031DE5
:100E88003D2F2408A800A217FF30A005FF30A105B8
:100E9800FF30A2050030A3059630A902A91F552FDF
:100EA800562F6E2F2908803A973E03185C2F5D2F26
:100EB8005E2F2B2F01300310A30CA20CA10CA00C49
:100EC800FF3E031D5F2F0130A907031D6C2F6D2FF7
:100ED8005E2F852F20302902031C732F742F802F3B
:100EE8002B2F0130A4000310A00DA10DA20DA30DFE
:100EF800A40B772F0130A9022908031D842F852F01
:100F0800752F28080319892F8A2F952FA009A10961
:100F1800A209A309A00A0319A10A0319A20A03191D
:100F2800A30A080083120313AF01AB1F9C2F9D2F48
:100F3800A42FAA09AB09AA0A0319AB0A0130AF000A
:100F4800AD1FA72FA82FAF2FAC09AD09AC0A031905
:100F5800AD0A0130AF06B001B1012A082B0403190C
:100F6800B62FB72FEC2F0130AE00C32F013003107E
:100F7800AA0DAB0DFF3E031DBB2F0130AE07AB1F03
:100F8800C62FC72FBA2F01300310B00DB10DFF3E89
:100F9800031DC82F2B082D02031DD42F2A082C024D
:100FA800031CD72FD82FDF2F2A08AC022B08031CCD
:100FB800AD03AD02301401300310AB0CAA0CFF3E98
:100FC800031DE02F0130AE02031DEB2FEC2FC72FBE
:100FD8002F080319F02FF12FF62FB009B109B00A25
:0E0FE8000319B10A3108AB003008AA00080056
:1010000008308A000408840A8207003454346534A6
:0A1010006D3470343A34203400349B
:101CC60064008001840A0406031900340406642EA5
:101CD60083120313A2002208870006108610061539
:101CE600413083120313A100ED30A000A00B792E22
:101CF600A10B792E7E2E8312031306110800831280
:101D06000313A20022088700061486100615413028
:101D160083120313A100ED30A000A00B902EA10B9F
:101D2600902E952E831203130611080038300A12DE
:101D36008A156B260A128A1506300A128A156B2630
:101D46000A128A150C300A128A156B260A128A158F
:101D560001300A128A156B260A128A1508008312A8
:101D66000313A601A701CC2E2608230784000A1216
:101D76008A1500200A128A150A128A1582260A1264
:101D86008A15013083120313A6070318A70A003029
:101D9600A70725082702031DD22E24082602031CA6
:101DA600D52ED62EB72E0800831203130C1FDC2E59
:101DB600DD2EF72E1E08F000F1017008F100F0018B
:101DC6007008F7007108F800831603131E087707DA
:101DD600F00078080318780AF1007008F700710817
:101DE600F800831203130C137408FF0073088A00AB
:101DF600720E8300FE0E7E0E090083120313A800E6
:101E0600A401A5012008A200A3012208A600230818
:101E1600A700281C0F2F102F162F2608A40703181B
:101E2600A50A2708A50701300310A60DA70DFF3E3A
:101E3600031D172F0310A80C2808031D232F242F7A
:101E46000C2F2508A1002408A00008008312031304
:101E5600200821040319302F312F5E2F0130A400F2
:101E66003D2F01300310A00DA10DFF3E031D352FA0
:101E76000130A407A11F402F412F342F2108230230
:101E8600031D472F20082202031C4A2F4B2F512FD8
:101E96002008A2022108031CA303A3020130031099
:101EA600A10CA00CFF3E031D522F0130A402031DFE
:101EB6005D2F5E2F412F2308A1002208A0000800F5
:101EC60083120313A501A6012008210403196C2F10
:101ED6006D2FA22F0130A400792F01300310A00D21
:101EE600A10DFF3E031D712F0130A407A11F7C2FFA
:101EF6007D2F702F01300310A50DA60DFF3E031D8B
:101F06007E2F21082302031D8A2F20082202031C8C
:101F16008D2F8E2F952F2008A2022108031CA303C4
:101F2600A302251401300310A10CA00CFF3E031DD3
:101F3600962F0130A402031DA12FA22F7D2F260864
:101F4600A1002508A000080083120313AF01AD1FEE
:101F5600AD2FAE2FB52FAC09AD09AC0A0319AD0AEA
:101F66000130AF00AB1FB82FB92FBE2FAA09AB099E
:101F7600AA0A0319AB0A2A082B040319C32FC42F74
:101F8600F12F0130AE00D02F01300310AA0DAB0D9A
:101F9600FF3E031DC82F0130AE07AB1FD32FD42F32
:101FA600C72F2B082D02031DDA2F2A082C02031C2B
:101FB600DD2FDE2FE42F2A08AC022B08031CAD030D
:101FC600AD0201300310AB0CAA0CFF3E031DE52F3A
:101FD6000130AE02031DF02FF12FD42F2F08031965
:101FE600F52FF62FFB2FAC09AD09AC0A0319AD0A84
:0A1FF6002D08AB002C08AA0008001B
:02400E00FA1F97
:00000001FF
