:060000000A128A110E280D
:10000800FE00030EF2000A08F3007F08F4000A124B
:100018008A1171290A128A111128F501F601F701CE
:10002800F80183120313A001A101A201A301A401F5
:10003800A501A601A701A801A901AA01AB01830195
:100048000A128A1127288B170B17831603130C170C
:10005800860187010A128A11BF210A128A1180308B
:100068000A128A11EF210A128A110130831203132E
:10007800AF000B30B0000030B1000A128A119A218B
:100088000A128A114130831203139F008E3083169F
:1000980003139F00831203131F0804389F008C303A
:1000A8000A128A11EF210A128A110A3083120313E5
:1000B800AC000030AD007808AF007708AE000A1237
:1000C8008A11F3200A128A11831203132D08F600ED
:1000D8002C08F5000A30AC000030AD007808AF00FD
:1000E8007708AE000A128A1137210A128A11831280
:1000F80003132D08A9002C08A8000A30AC00003012
:10010800AD007608AF007508AE000A128A113721D3
:100118000A128A11831203132D08A7002C08A600BF
:100128000A30AC000030AD007608AF007508AE00AC
:100138000A128A11F3200A128A11831203132D0856
:10014800A5002C08A4000A30AC000030AD0025083A
:10015800AF002408AE000A128A1137210A128A1148
:10016800831203132D08A3002C08A2000A30AC0048
:100178000030AD002508AF002408AE000A128A112D
:10018800F3200A128A11831203132D08A1002C08E8
:10019800A0002008303E0A128A11D8210A128A11BA
:1001A800831203132208303E0A128A11D8210A1238
:1001B8008A11831203132608303E0A128A11D821A5
:1001C8000A128A11831203132808303E0A128A1170
:1001D800D8210A128A114E280A128A110E2883126F
:1001E8000313B101B2012C082D040319FC28FD28C2
:1001F80032290130B000092901300310AC0DAD0DD2
:10020800FF3E031D01290130B007AD1F0C290D2940
:10021800002901300310B10DB20DFF3E031D0E2958
:100228002D082F02031D1A292C082E02031C1D2934
:100238001E2925292C08AE022D08031CAF03AF0286
:10024800311401300310AD0CAC0CFF3E031D262900
:100258000130B002031D312932290D293208AD00C1
:100268003108AC000800831203132C082D0403196D
:100278003E293F296C290130B0004B290130031079
:10028800AC0DAD0DFF3E031D43290130B007AD1F76
:100298004E294F2942292D082F02031D55292C08C4
:1002A8002E02031C582959295F292C08AE022D0853
:1002B800031CAF03AF0201300310AD0CAC0CFF3EC2
:1002C800031D60290130B002031D6B296C294F29D9
:1002D8002F08AD002E08AC000800831203130C1F72
:1002E8007629772991291E08F000F1017008F1009C
:1002F800F0017008F7007108F800831603131E0850
:100308007707F00078080318780AF1007008F700FA
:100318007108F800831203130C137408FF007308A4
:100328008A00720E8300FE0E7E0E090083120313EC
:10033800B201B301B42932082F0784000A128A11C6
:1003480006220A128A110A128A11D8210A128A115F
:10035800013083120313B2070318B30A0030B3073E
:1003680031083302031DBA2930083202031CBD29A3
:10037800BE299F29080038300A128A11EF210A1273
:100388008A1106300A128A11EF210A128A110C30DA
:100398000A128A11EF210A128A1101300A128A11EF
:1003A800EF210A128A11080083120313AE002E08E7
:1003B8008700061486100615413083120313AD001A
:1003C800ED30AC00AC0BE629AD0BE629EB29831226
:1003D80003130611080083120313AE002E088700CA
:1003E800061086100615413083120313AD00ED3058
:1003F800AC00AC0BFD29AD0BFD29022A83120313B7
:100408000611080002308A000408840A82070034B2
:1004180050344F3454342034563461346C34753489
:0804280065343A34203400343D
:02400E00FA1F97
:00000001FF
