:060000000A128A110E280D
:10000800FE00030EF0000408F1000A08F2000A12CC
:100018008A11BE280A128A11112883132A30FD007A
:100028000130FE00AA30FF00203084000A128A1135
:100038009B210A128A11B401B501B601B701B801B2
:10004800B901F801F90183010A128A112B288316D4
:100058000313860187018B170B178B160730810056
:100068003B30831203138100E830F3000330F400BF
:100078007908F6007808F5000A128A1119210A127F
:100088008A11730883120313B4000A30AD000030DC
:10009800AE006430F3000030F4007908F600780808
:1000A800F5000A128A1119210A128A11740883129A
:1000B8000313B0007308AF000A128A115D210A12F7
:1000C8008A11831203132D08B5000A30AD000030E1
:1000D800AE000A30F3000030F4007908F600780822
:1000E800F5000A128A1119210A128A11740883125A
:1000F8000313B0007308AF000A128A115D210A12B7
:100108008A11831203132D08B6000A30AD0000309F
:10011800AE007908B0007808AF000A128A115D2194
:100128000A128A11831203132D08B7000130F80749
:100138000318F90A0030F907E83078060330031984
:100148007906031DA828A928AB28F801F9010D3064
:1001580083120313B300AF30B200B530B100B10B56
:10016800B328B20BB328B30BB328BA2838280A121D
:100178008A110E280B1DC128C228102983120313C7
:1001880038083904031DC928CA28D2280130860036
:100198003408203E8400831300088700380339049C
:1001A800031DD728D828E028023086003508203ECD
:1001B8008400831300088700023038063904031DC1
:1001C800E628E728EF28043086003608203E840019
:1001D800831300088700033038063904031DF52807
:1001E800F628FE28083086003708203E840083134E
:1001F800000887000130B8070318B90A0030B907AA
:1002080000303902043003193802031C0C290D2967
:100218000F29B801B9010B1172088A00710884000E
:10022800700E8300FE0E7E0E090083120313AB01CD
:10023800AC017308740403192229232958290130B1
:10024800AA002F2901300310F30DF40DFF3E031D02
:1002580027290130AA07F41F32293329262901301A
:100268000310AB0DAC0DFF3E031D34297408760254
:10027800031D402973087502031C432944294B298F
:100288007308F5027408031CF603F6022B140130F8
:100298000310F40CF30CFF3E031D4C290130AA0295
:1002A800031D5729582933292C08F4002B08F3007B
:1002B8000800831203132D082E04031964296529E5
:1002C80092290130F700712901300310AD0DAE0DF0
:1002D800FF3E031D69290130F707AE1F74297529F0
:1002E80068292E083002031D7B292D082F02031CC4
:1002F8007E297F2985292D08AF022E08031CB0030B
:10030800B00201300310AE0CAD0CFF3E031D862970
:100318000130F702031D9129922975293008AE0092
:100328002F08AD0008007E088A007F0882000A12A4
:100338008A1197210A128A118000840A04087D060E
:1003480003190034FF0A0319FE0A9B293F340634B7
:100358005B344F3466346D347D3407347F346F3406
:02400E00FA1F97
:00000001FF
